:100000000C942A000C943F000C943F000C943F0089
:100010000C943F000C943F000C943F000C943F0064
:100020000C943F000C943F000C943F000C943F0054
:100030000C943F000C943F000C943F000C943F0044
:100040000C943F000C943F000C943F000C943F0034
:100050000C943F0011241FBECFE5D8E0DEBFCDBF1A
:1000600010E0A0E6B0E0E2EDF2E002C005900D92F3
:10007000A837B107D9F70E9435010C9467010C9499
:100080000000282F80FF06C0E2E3F0E0808180615D
:10009000808305C0E2E3F0E080818F7E808321FFD2
:1000A00006C0E2E3F0E080818062808305C0E2E385
:1000B000F0E080818F7D808322FF06C0E2E3F0E0E4
:1000C00080818064808305C0E2E3F0E080818F7BE3
:1000D000808323FF06C0E2E3F0E0808180688083B4
:1000E0000895E2E3F0E080818F7780830895FF92A6
:1000F0000F931F93F82E02E310E0F80180818860CF
:1001000080838F2D82958F700E944100F80180813D
:10011000877F80838081886080838F2D0E9441004B
:10012000F8018081877F808388EC8A95F1F71F91A1
:100130000F91FF900895E2E3F0E090819B7F908320
:100140000E9477000895E2E3F0E09081946090834C
:100150000E9477000895CF93DF93EC018881882374
:1001600031F021960E94A30088818823D1F7DF9186
:10017000CF9108956295660F660F607C680F862F99
:1001800080680E949B00089581E00E949B0080E7A8
:1001900097E10197F1F70895EF92FF920F931F9364
:1001A000CF93DF93E1E3F0E0808180618083808101
:1001B0008062808380818064808380818068808386
:1001C00080818860808380818460808388EC9FEA5E
:1001D0000197F1F7E2E3F0E080818B7F80838081FB
:1001E000877F808300E0C2E3D0E00F2EF8E9EF2E96
:1001F000FAE3FF2EF02D88818860888383E00E94D7
:1002000041008881877F8883C7010197F1F70F5FDD
:10021000033089F702E310E0F80180818860808371
:1002200082E00E944100F8018081877F808388EB13
:100230009BE00197F1F788E20E949B0088E00E9412
:100240009B0081E00E949B0080E797E10197F1F716
:1002500086E00E949B008CE00E949B00DF91CF9182
:100260001F910F91FF90EF900895CF92DF92EF9240
:10027000FF920F931F93CF93DF930E94CC000E94B5
:10028000C4000F2EF0E6EF2EF0E0FF2EF02D0F2E23
:10029000FDE6CF2EF0E0DF2EF02D00E21EE4CCE2F2
:1002A000D1E082E060E00E94BA00C7010E94AB008A
:1002B00083E061E00E94BA00C6010E94AB00980191
:1002C000CE010197F1F721503040D1F7EACFF894F1
:0202D000FFCF5E
:1002D2004B6C6175646961206A6573740053555093
:0802E20045522120422D2900A4
:00000001FF
