S011000044435F456E67696E652E73726563D7
S11300000C942A000C9434000C9434000C943400A6
S11300100C9434000C9434000C9434000C9434008C
S11300200C9434000C9434000C9434000C9434007C
S11300300C9434000C9434000C9434000C9434006C
S11300400C9434000C9434000C9434000C9434005C
S11300500C94340011241FBECFE5D8E0DEBFCDBF21
S11300600E942B010C94D8010C940000282F80FFCF
S113007006C0E2E3F0E080818160808305C0E2E3B2
S1130080F0E080818E7F808321FF06C0E2E3F0E010
S113009080818260808305C0E2E3F0E080818D7F0F
S11300A0808322FF06C0E2E3F0E0808180648083E5
S11300B005C0E2E3F0E080818F7B808323FF06C0EC
S11300C0E2E3F0E08081806880830895E2E3F0E079
S11300D080818F7780830895FF920F931F93F82E6A
S11300E002E310E0F8018081886080838F2D82957F
S11300F08F700E943600F8018081877F8083808121
S1130100886080838F2D0E943600F8018081877F6C
S1130110808388EC90E00197F1F71F910F91FF9095
S11301200895E2E3F0E090819B7F90830E946C004D
S11301300895E2E3F0E09081946090830E946C0063
S11301400895CF93DF93EC018881882331F02196C1
S11301500E94990088818823D1F7DF91CF91089577
S11301606295660F660F607C680F862F80680E9418
S11301709100089581E00E94910080E49FE101973D
S1130180F1F70895EF92FF920F931F93CF93DF93AC
S1130190E1E3F0E0808181608083808182608083FC
S11301A0808180648083808180688083808188608E
S11301B0808380818460808380E69AEE0197F1F7E2
S11301C0E2E3F0E080818B7F80838081877F80837E
S11301D000E0C2E3D0E00F2EF0E2EF2EFEE4FF2EAB
S11301E0F02D88818860888383E00E9436008881AE
S11301F0877F8883C7010197F1F70F5F033089F781
S113020002E310E0F80180818860808382E00E942C
S11302103600F8018081877F808380EA9FE0019720
S1130220F1F788E20E94910088E00E94910081E049
S11302300E94910080E49FE10197F1F786E00E941B
S113024091008CE00E949100DF91CF911F910F915A
S1130250FF90EF9008958F929F92AF92BF92CF92AA
S1130260DF92EF92FF920F931F93DF93CF93CDB75B
S1130270DEB728970FB6F894DEBF0FBECDBF0E943D
S1130280C200E1E3F0E0808180668083E2E3F0E095
S113029080818066808381EF8FBD89E08EBD88EC8C
S11302A090E09BBD8ABD80EE9EE299BD88BD0F2E75
S11302B0FCE4CF2EDD24F02D7E010894E11CF11C1A
S11302C00F2EF8E4AF2EBB24F02D0F2EF4EF8F2E5B
S11302D0F1E09F2EF02D00E911E00E94BA0080E0C9
S11302E060E00E94B000F60180819181B70140E195
S11302F050E00E9493010E94A10080E061E00E940E
S1130300B000F50180819181B70140E150E00E9485
S113031093010E94A1009401C8010197F1F72150B3
S11303203040D1F7DACFFB019F01E8944230C4F0AA
S11303304532B4F44A3029F497FB1EF49095819524
S11303409F4F642F77270E94C401805D8A330CF08D
S1130350895D8193CB010097A1F716F45DE2519377
S11303601082C9010C94B401DC01FC01672F719166
S11303707723E1F7329704C07C916D937083629187
S1130380AE17BF07C8F30895AA1BBB1B51E107C0F2
S1130390AA1FBB1FA617B70710F0A61BB70B881F11
S11303A0991F5A95A9F780959095BC01CD010895A0
S10703B0F894FFCFEB
S9030000FC
